:060000000A128A110C280F
:10000800FE00030EF1000A08F2000A128A11942871
:100018000A128A110F28F60183010A128A115B2835
:1000280001308316031788008901213083160313D2
:10003800850010308700880183120313850187012A
:100048008801831603130F088F3940388F000F1467
:100058008B170B17831203130C13831603130C1738
:10006800831203131F083F3940389F008316031378
:100078001F129F12C330831203139F0583160313A5
:100088009F13831203131F140330F300F30B4A2842
:10009800F030831203139405141294168316031375
:1000A80014179417760883120313930008000A1292
:1000B8008A1114200A128A11831203139F186528C3
:1000C80066286D280330F400F40B682883120313A4
:1000D8009F147608930083160313141C742875283C
:1000E8006F288312031385170430F5003D30F400A0
:1000F800F40B7C28F50B7C288128831203138513C5
:10010800FF30930083160313141C8B288C28862831
:10011800831203131308880060280A128A110C2816
:10012800831203130C1F99289A28A8281F0CF00083
:10013800700C0F39003A031DA228A328A7281E080F
:10014800F0007008F6000C1372088A00710E830024
:06015800FE0E7E0E090000
:08400000FF3FFF3FFF3FFF3FC0
:04400E00D420FF3F7C
:00000001FF
